:020000040000FA
:060000009DEF0CF0120060
:020006001200E6
:06000800A9EF06F0120052
:02000E0033328B
:05001000280C010600B0
:0300150004143E92
:06001800FDEF06F01200EE
:02001E000200DE
:10002000150000000A0F0000030000009A190000EC
:0800300000010000D8000000EF
:0800380024D80101010EAE19EC
:1000400007E1AF5105E197EC04F00101AE6BAF6B36
:100050000D0EC26E010EE66EB8EC0CF0E552BED984
:10006000010EC26EE66EB8EC0CF0E5525FDA190EC6
:10007000C26E010EE66EB8EC0CF0E55201DB9EDBC1
:10008000DCD7290E926E896A0B0E956E8C6A9B0ED8
:10009000946E8B6A9782936A8A6A07EC0AF0860EDE
:1000A000E66E190EE66E000EE66E98EC0AF0E5526A
:1000B000E552E552900EE66E190EE66E000EE66E03
:1000C00098EC0AF0E552E552E5528C988C8AB0C162
:1000D000E6FF50EC0CF0E5528C9A8C8CB0C1E6FF38
:1000E00050EC0CF0E5528C9C8C8EB0C1E6FF50ECCD
:1000F0000CF0E5528C9E010EE66E7DEC0CF0E552A4
:1001000007D888D8B1D8B6D8FCD8EBD8D58E12008D
:10011000020ED56E9DC11CF01C50D76E9CC1D6FF3F
:100120007B6A0101A051E96EEA6AD890E936EA36A5
:10013000000EE926010EEA22EECF1CF0EFCF1DF0F3
:100140001DC01CF01D6A1C507D6EA051E96EEA6A4C
:10015000D890E936EA36000EE926010EEA22EF5081
:100160007C6ED08ED282BA92F294F28CF28EB982E8
:10017000D58E7B80A0514E0842E3F2A4FBD7A02B82
:10018000200EA05D0FE0210EA05D0CE0220EA05D10
:1001900009E03F0EA05D06E0400EA05D03E0410EC9
:1001A000A05D08E19FC11CF01D6A1C50D76E9EC166
:1001B000D6FF07D09DC11CF01D6A1C50D76E9CC194
:1001C000D6FFA051E96EEA6AD890E936EA36000E09
:1001D000E926010EEA22EECFE5F1EDCFE6F1A051DE
:1001E000E96EEA6AD890E936EA36000EE926010E91
:1001F000EA22EECFE7F1EDCFE8F1F294BBD7D59E3E
:100200007B90B992F29CF29E0101E56BE66BE76B85
:10021000E86B1200030ED56EB1C1D7FFB2C1D6FF95
:10022000100ECD6EB3C1CFFFB4C1CEFFB16AB9C15C
:10023000B3FFBAC1B2FF7B6AC2C11CF01C507D6E15
:10024000C1C17CFFD08EF1949F8A9F90A292D282EE
:10025000F28A9D8A9D80A082B9829E90A192BA92D4
:10026000F28CF28E9E9A1200C26AC16A950EC06E1E
:10027000C2801200D9CFE6FFE1CFD9FF020EE126FE
:10028000260EAC6E900EAB6E659A6598658665928B
:100290006590CF0EAF6EDE6ADD6ADECF1CF0DDCF7B
:1002A0001DF0D8901D5004E60D0E1C5C000E1D586C
:1002B0000EE2DECFE9FFDDCFEAFFD80EE926010E20
:1002C000EA22EF6ADF2A010EE8E3DB2AE6D7020E14
:1002D000E15C02E2E16AE552E16EE552E7CFD9FF67
:1002E000120096909488949A94968D68800EC76EAA
:1002F000300EC66EC79CC688C68A0101FD6BB180F0
:100300001200D9CFE6FFE1CFD9FFE652800EE66EAC
:10031000080EE66E37EC0CF0E552E5520101010ED5
:10032000FD6F270EC86EDF6ADFCF1CF0130EE76E7D
:100330001C18E8AE02D0E73402D0E7501C5C1FE284
:10034000DFCF1CF01D6A1CBE1D681CC0E6FF1DC06F
:10035000E6FFDFCFE9FFEA6AE9BEEA68C50EE926F3
:10036000010EEA22EF50E66E3CDAE552E552E55224
:10037000010EE66EB8EC0CF0E552DF2AD5D7C69A2E
:10038000C96AC780E552E552E7CFD9FF1200D9CF3D
:10039000E6FFE1CFD9FFFE0EDB500FE1C69AC96A36
:1003A000C78094968D68800EC76E300EC66EC79C4F
:1003B000C688C68A0101FD6B0DD0C69A9486800E50
:1003C000E66E080EE66E37EC0CF0E552E5520101E0
:1003D000010EFD6FE552E7CFD9FF1200D9CFE6FF3E
:1003E000E1CFD9FF0A0EE126080EDB6A090EDB6AAF
:1003F000080EDBCF1CF0090EDBCF1DF0D8901D508E
:1004000004E6020E1C5C000E1D5816E2C282C2B247
:10041000FED7080E086E096AC3CF0DF0C4CF0EF0E8
:1004200034EC09F006C0DEFF07C0DDFF080EDB2A52
:10043000090EDEE3DB2ADCD7E80E1C6E030E1D6E10
:100440001CC00DF00E6EDECF08F0DDCF09F00EEC13
:1004500009F0020E08C0DBFF030E09C0DBFFDECF90
:100460001CF0DDCF1DF0E80E0D6E030E0E6E1CC0ED
:1004700008F01DC009F00EEC09F004C01CF005C026
:100480001DF0640E0D6E0E6A04C008F005C009F080
:100490000EEC09F0040E08C0DBFF050E09C0DBFFFF
:1004A000DECF1CF0DDCF1DF0640E0D6E0E6A1CC099
:1004B00008F01DC009F00EEC09F004C01CF005C0E6
:1004C0001DF00A0E0D6E0E6A04C008F005C009F09A
:1004D0000EEC09F008C01CF009C01DF0060E08C0A3
:1004E000DBFF070E09C0DBFF0101820EA16F020EC8
:1004F000DB50300FA26F040EDB50300FA36F060EDF
:10050000DB50300FA56FA66BA10EE66E010EE66EF6
:10051000C2EC0AF0E552E5520A0EE15C02E2E16A41
:10052000E552E16EE552E7CFD9FF1200D9CFE6FFE1
:10053000E1CFD9FF0A0EE126080EDB6A090EDB6A5D
:10054000080EDBCF1CF0090EDBCF1DF0D8901D503C
:1005500004E6020E1C5C000E1D5816E2C282C2B2F6
:10056000FED7080E086E096AC3CF0DF0C4CF0EF097
:1005700034EC09F006C0DEFF07C0DDFF080EDB2A01
:10058000090EDEE3DB2ADCD7100E1C6E270E1D6E73
:100590001CC00DF00E6EDECF08F0DDCF09F00EECC2
:1005A00009F0020E08C0DBFF030E09C0DBFFDECF3F
:1005B0001CF0DDCF1DF0100E0D6E270E0E6E1CC050
:1005C00008F01DC009F00EEC09F004C01CF005C0D5
:1005D0001DF0E80E0D6E030E0E6E04C008F005C08F
:1005E00009F00EEC09F0040E08C0DBFF050E09C08F
:1005F000DBFFDECF1CF0DDCF1DF0E80E0D6E030E2D
:100600000E6E1CC008F01DC009F00EEC09F004C00D
:100610001CF005C01DF0640E0D6E0E6A04C008F0DB
:1006200005C009F00EEC09F008C01CF009C01DF06F
:10063000060E08C0DBFF070E09C0DBFF0101C30E79
:10064000A76F020EDB50300FA86F040EDB50300F87
:10065000AA6F060EDB50300FAB6FAC6BA70EE66EC9
:10066000010EE66EC2EC0AF0E552E5520A0EE15CBC
:1006700002E2E16AE552E16EE552E7CFD9FF1200EE
:10068000D9CFE6FFE1CFD9FF0C0EE126DA0EF36EEB
:10069000080EF3CFDBFFAC0EF36E090EF3CFDBFFDA
:1006A0007A0EF36E0A0EF3CFDBFF3C0EF36E0B0EE9
:1006B000F3CFDBFF020EDB6A030EDB6A020EDBCF39
:1006C0001CF0030EDBCF1DF0D8901D5004E6020E87
:1006D0001C5C000E1D5816E2C282C2B2FED7080E84
:1006E000086E096AC3CF0DF0C4CF0EF034EC09F0E8
:1006F00006C0DEFF07C0DDFF020EDB2A030EDEE3CD
:10070000DB2ADCD7000EDFCF08F0010EDBCF09F0CB
:100710008EEC08F0080EDBCF0CF0090EDBCF0DF0ED
:100720000A0EDBCF0EF00B0EDBCF0FF0A1EC08F0C2
:10073000040E07C0DBFF050E08C0DBFF060E09C074
:10074000DBFF070E0AC0DBFF040EDBCF07F0050E50
:10075000DBCF08F0060EDBCF09F0070EDBCF0AF087
:1007600052EC09F00101BF5108240101E56F0101BC
:10077000C05109200101E66F040EDBCF07F0050E22
:10078000DBCF08F0060EDBCF09F0070EDBCF0AF057
:1007900052EC09F00101C15108240101E76F010188
:1007A000C25109200101E86F0C0EE15C02E2E16A2E
:1007B000E552E16EE552E7CFD9FF120083A604D0DF
:1007C0000101010EC36F12008350080B09E1010102
:1007D000C30506E1C36B010EC46F7B707BA08A9CCE
:1007E0001200D9CFE6FFE1CFD9FFC750040B01E0DB
:1007F000010E1C6E1F0EC5141C10F7E1C580C5B09C
:10080000FED7C750040B01E0010E1C6E1F0EC5146D
:100810001C10F7E1A20EE66E83EC0BF0E552C75018
:10082000040B01E0010E1C6E1F0EC5141C10F7E135
:10083000C5AC09D0C580C5B0FED7A20EE66E83EC6C
:100840000BF0E552F5D7FC0EDBCFE6FF83EC0BF0A7
:10085000E552C750040B01E0010E1C6E1F0EC514BB
:100860001C10F7E1FE0EDBCFE6FF83EC0BF0E55248
:10087000C584C5B4FED7E552E7CFD9FF1200D9CF62
:10088000E6FFE1CFD9FFC750040B01E0010E1C6E5B
:100890001F0EC5141C10F7E1C580C5B0FED7A20E0F
:1008A000E66E83EC0BF0E552C750040B01E0010E3D
:1008B0001C6E1F0EC5141C10F7E1FD0EDBCFE6FF0A
:1008C00083EC0BF0E552C750040B01E0010E1C6EE7
:1008D0001F0EC5141C10F7E1C584C5B4FED7C75060
:1008E000040B01E0010E1C6E1F0EC5141C10F7E175
:1008F000C580C5B0FED7A30EE66E83EC0BF0E552C3
:10090000FC0EDBCFE6FFE90EE66E010EE66EC3ECF1
:100910000BF0E552E552E552C58AC588C5B8FED749
:10092000C584C5B4FED7E552E7CFD9FF1200D9CFB1
:10093000E6FFE1CFD9FF390EE126D9CFE9FFDACFC3
:10094000EAFF540EEE6E450EEE6E4D0EEE6E500E3C
:10095000EE6E0A0EEE6EEE6AD950060FE96EDACF31
:10096000EAFF500EEE6E4F0EEE6E540EEE6E0A0E55
:10097000EE6EEE6AD9500B0FE96EDACFEAFF430E46
:10098000EE6E4F0EEE6E4E0EEE6E540EEE6E5F0E6F
:10099000EE6E4F0EEE6E4E0EEE6E0A0EEE6EEE6ABE
:1009A000D950140FE96EDACFEAFF430EEE6E4F0E08
:1009B000EE6E4E0EEE6E540EEE6E5F0EEE6E4F0E3F
:1009C000EE6E460EEE6E460EEE6E0A0EEE6EEE6A9F
:1009D000D9502C0FE96EDACFEAFF720EEE6E650E7B
:1009E000EE6E610EEE6E640EEE6E5F0EEE6E450EF6
:1009F000EE6E450EEE6E500EEE6E520EEE6E4F0E19
:100A0000EE6E4D0EEE6E0A0EEE6EEE6AD9502C0FA3
:100A1000E66E000EDA20E66ED80EE66E010EE66E89
:100A2000FEEC0BF0E552E552E552E552000937E1E4
:100A3000010EE66EACDCE552140EE66E000EE66EBC
:100A4000E66A1DDFE552E552E552E66AA0DCE552B2
:100A50002A0EDB6A2B0EDB6A2A0EDBCF1CF02B0E74
:100A6000DBCF1DF0D8901D5004E6140E1C5C000E68
:100A70001D5815E29EA8FED72A0EDBCFE9FF2B0EEC
:100A8000DBCFEAFFE90EE926010EEA22EF50AD6E58
:100A900000002A0EDB2A2B0E01E3DB2ADDD7D9CF9B
:100AA000E6FFDACFE6FFD80EE66E010EE66EFEEC4C
:100AB0000BF0E552E552E552E552000972E1010EF4
:100AC000F36E2A0EF3CFDBFF2B0EDB6A2A0EDBCF91
:100AD0001CF02B0EDBCF1DF0D8901D5004E6050E48
:100AE0001C5C000E1D5829E22A0EDBCFE9FF2B0EFD
:100AF000DBCFEAFFA10EE926010EEA22EF50E66EF7
:100B0000D950240F1C6EDACF1DF02A0EDBCF1EF059
:100B10002B0EDBCF1FF01E06000E1F5A1C501E248A
:100B2000E96E1D501F20EA6EE552E750EF6E2A0E67
:100B3000DB2A2B0E01E3DB2AC9D7430EF36E280E06
:100B4000F3CFDBFF0A0EF36E290EF3CFDBFF2A0E85
:100B5000DB6A2B0EDB6A2A0EDBCF1CF02B0EDBCF01
:100B60001DF0D8901D5004E6060E1C5C000E1D58AA
:100B700018E29EA8FED7D950240F1C6EDACF1DF0C4
:100B80002A0EDB501C24E96E2B0EDB501D20EA6E72
:100B9000EF50AD6E00002A0EDB2A2B0E01E3DB2A9C
:100BA000DAD7D950060FE66E000EDA20E66ED80EC0
:100BB000E66E010EE66EFEEC0BF0E552E552E552F4
:100BC000E552000972E1010EF36E2A0EF3CFDBFF4E
:100BD0002B0EDB6A2A0EDBCF1CF02B0EDBCF1DF0B9
:100BE000D8901D5004E6050E1C5C000E1D5829E22D
:100BF0002A0EDBCFE9FF2B0EDBCFEAFFA70EE9269B
:100C0000010EEA22EF50E66ED9501E0F1C6EDACFAD
:100C10001DF02A0EDBCF1EF02B0EDBCF1FF01E06C1
:100C2000000E1F5A1C501E24E96E1D501F20EA6E34
:100C3000E552E750EF6E2A0EDB2A2B0E01E3DB2A8A
:100C4000C9D7560EF36E220EF3CFDBFF0A0EF36EFA
:100C5000230EF3CFDBFF2A0EDB6A2B0EDB6A2A0E94
:100C6000DBCF1CF02B0EDBCF1DF0D8901D5004E61F
:100C7000060E1C5C000E1D5818E29EA8FED7D95027
:100C80001E0F1C6EDACF1DF02A0EDB501C24E96EFD
:100C90002B0EDB501D20EA6EEF50AD6E00002A0EC9
:100CA000DB2A2B0E01E3DB2ADAD7D9500B0FE66ED5
:100CB000000EDA20E66ED80EE66E010EE66EFEEC51
:100CC0000BF0E552E552E552E552000901E1CD8015
:100CD000D950140FE66E000EDA20E66ED80EE66EDE
:100CE000010EE66EFEEC0BF0E552E552E552E552E0
:100CF000000901E1CD902A0EDB6A2B0EDB6A2A0E79
:100D0000DBCF1CF02B0EDBCF1DF0D8901D5004E67E
:100D10000D0E1C5C000E1D5811E22A0EDBCFE9FF00
:100D20002B0EDBCFEAFFD80EE926010EEA22EF6A8E
:100D30002A0EDB2A2B0E01E3DB2AE1D700D0390E85
:100D4000E15C02E2E16AE552E16EE552E7CFD9FFEC
:100D50001200DACFE4FFE2CFDAFFE9CFE4FFEACF17
:100D6000E4FFE652BAA202D00DD8FCD79EAA02D068
:100D70001DD8F8D7E552E5CFEAFFE5CFE9FFE5CF8B
:100D8000DAFF11008A7C81BC03D0E8C114F004D0E2
:100D900081AC0AD0E6C114F014507D260101E75160
:100DA0007C26D850010B7D26BA921200D9CFE6FFDF
:100DB000E1CFD9FFE652ABA403D0AE50DF6E04D032
:100DC000ABA204D0AB98AB88010111D00101AD51A9
:100DD000EA6AD80FE96E010EEA22AECFEFFFAD2B23
:100DE0009E9A0A0EAE5C04E1010EAE6FAF6BAD6B66
:100DF000E552E552E7CFD9FF1200D8CFE4FFE0CFAC
:100E0000E4FFE46EDACFE4FFE2CFDAFFE9CFE4FFFC
:100E1000EACFE4FF00EE1CF0060EE80403E3EECF99
:100E2000E4FFFBD7E652A1A202D032D9FCD7F2A44C
:100E300002D01AD8F8D79EA002D035D8F4D7E55200
:100E400000EE21F0060EE80403E3E5CFEDFFFBD74B
:100E5000E5CFEAFFE5CFE9FFE5CFDAFFE550E5CFE3
:100E6000E0FFE5CFD8FF10000101B72B000EB8233B
:100E7000010EB71904E1B85102E18C880ED0020EC0
:100E8000B71904E1B85102E18C9807D00A0EB719DE
:100E900004E1B85102E1B76BB86BB1C1D7FFB2C181
:100EA000D6FFF2941200D9CFE6FFE1CFD9FF140E9E
:100EB000E126540EDF6EDE523D0EDD6E020EDB6A61
:100EC000030EDB6A040EDB6A050EDB6A430EF36E6B
:100ED000060EF3CFDBFF3B0EF36E070EF3CFDBFF07
:100EE000200EF36E080EF3CFDBFF500EF36E090EEB
:100EF000F3CFDBFF540EF36E0A0EF3CFDBFF3D0E94
:100F0000F36E0B0EF3CFDBFF0C0EDB6A0D0EDB6A0C
:100F10000E0EDB6A0F0EDB6A560EF36E100EF3CF69
:100F2000DBFF0A0EF36E110EF3CFDBFF0101280E7B
:100F3000B51901E1B65101E097D0010EF36E120E22
:100F4000F3CFDBFF130EDB6A120EDBCF16F0130EAE
:100F5000DBCF17F0D890175004E6050E165C000E94
:100F6000175850E2120EDBCFE9FF130EDBCFEAFF7A
:100F7000A10EE926010EEA22EF50E66ED9CF16F057
:100F8000DACF17F0010EE76E120EDBCF18F0130E5A
:100F9000DBCF19F0E7501826000E1922165018243E
:100FA000E96E17501920EA6EE552E750EF6E120E07
:100FB000DBCFE9FF130EDBCFEAFFA70EE926010E18
:100FC000EA22EF50E66ED9CF16F0DACF17F00B0E0B
:100FD000E76E120EDBCF18F0130EDBCF19F0E750DF
:100FE0001826000E192216501824E96E17501920E1
:100FF000EA6EE552E750EF6E120EDB2A130E01E3A4
:10100000DB2AA2D7120EDB6A130EDB6A120EDBCFCD
:1010100016F0130EDBCF17F0D890175004E6120E1F
:10102000165C000E175817E29EA8FED7D9CF16F00F
:10103000DACF17F0120EDB501624E96E130EDB50D8
:101040001720EA6EEF50AD6E0000120EDB2A130E71
:1010500001E3DB2ADBD70101B56BB66BB3C1CFFF70
:10106000B4C1CEFF9E900AD00101B52B000EB6236D
:10107000B3C1CFFFB4C1CEFF9E9000D0140EE15C8F
:1010800002E2E16AE552E16EE552E7CFD9FF1200D4
:10109000D9CFE6FFE1CFD9FF020EE1260101BD5114
:1010A000BE110BE1BB2B000EBC23FF0EBB5D3F0E40
:1010B000BC590DE3010EBD6F09D0BB07000EBC5B30
:1010C000BB5105E1300EBC1902E1BD6BBE6B0101E5
:1010D000FD5113E18D90BCC11AF01B6A1A50C96E04
:1010E000C7A0FED7C950DE6EDD6ABBC1C9FFC7A06D
:1010F000FED7C950DE6EDD6A8D80B9C1B3FFBAC1BB
:10110000B2FFA192020EE15C02E2E16AE552E16EF9
:08111000E552E7CFD9FF120000
:08111800019E08D0019E09AE02
:1011200005D0086C091EE86A0922018E09C003F087
:1011300008C002F0136A126A8E0E046E056A9DEFF3
:1011400009F0016AD9EC09F0F1EC09F001B681EF80
:1011500009F001A205D001B881EF09F088EF09F08C
:1011600001AA05D001B081EF09F088EF09F001B0C4
:1011700002D001A802D094EF09F0056A0F500A24AA
:10118000046EE86A05227E0E045EE86A055A126A59
:10119000136A026A036A0E500902F4CF03F0F3CF18
:1011A00002F00D500902F3501326F4500222000EF3
:1011B00003220E500802F3501326F4500222000EB0
:1011C00003220C500902F3501226F4501322000E91
:1011D000022203220D500802F3501226F45013226B
:1011E000000E022203220E500702F3501226F45082
:1011F0001322000E022203220C500802F450122681
:10120000000E1322022203220D500702F450122670
:10121000000E1322022203229DEF09F0006A0EAE97
:1012200017EF09F00D6C0E1EE86A0E22001E09AEC3
:101230001FEF09F0086C091EE86A0922001E67EC1E
:101240000CF009BE2FEF09F000AE000C086C091E6F
:10125000E86A0922046C051EE86A0522000C00BE3B
:1012600026EF09F00188FF0C08C012F008500D02AB
:10127000F4CF07F0F3CF06F009500E02F4CF09F0D7
:10128000F3CF08F00D02F3500726F4500822E86A65
:10129000092212500E02F3500726F4500822E86A81
:1012A0000922000C016AD9EC09F001B65CEF09F0E3
:1012B00001A20ED001B405D07F0E096EFF0E086E9C
:1012C0001FD0800E096E086A1BD0096A086A18D000
:1012D00001B0FBD78F0E0A60EDD77E0E0A64F5D7FA
:1012E0008E0E0A5C05E0D890093208320A2AF8D737
:1012F00001A406D0086C091EE86A092209AEE5D7E8
:1013000012007F0E0A6EFF0E096E086E076E120045
:101310007F0E01BEFF0E0A6E02D07F0E0A6E800E97
:10132000096E086A076AF3D701AE04D0800E0A6E10
:10133000096AF7D70A6A096AF4D703500210131032
:101340001210F8E005BEF0D703BE0CD00450051013
:10135000EBE0D89012361336023603360406D8A0D6
:101360000506F2D70550D4E10428D2E012AE11D020
:101370007F0E121402E113A00CD0132AE86A022295
:10138000032207E3D880033202321332042A0428EE
:10139000BFE00450C9E013C007F002C008F00334F6
:1013A000096E04300A6E09320A9E01BE0A8E87EF6A
:1013B00009F009360A3602E30184017E06E1018064
:1013C0000A6A096A086A076A12000A2803E0D880D4
:1013D00009321200D890093202E10182120001861E
:1013E00012000E360F3602E3018C017E06E1018801
:1013F0000F6A0E6A0D6A0C6A12000F2803E0D8808B
:0E1400000E321200D8900E32EAE1018A12007C
:02140E00D9CF34
:10141000E6FFE1CFD9FF020EE126DF6A010EDB6AAB
:10142000040E0F010A03F350E66E50EC0CF0E55287
:101430008A980E0E1C6E000E1D6E000E1E6EDFCF03
:101440001FF0206A216A1C501F24F36E1D502020BB
:10145000F46E1E502120F86EF4CFF7FFF3CFF6FFA5
:101460000800F5505AE08A6A8A8A0E0E1C6E000E39
:101470001D6E000E1E6EDFCF1FF0206A216A1C5009
:101480001F24F36E1D502020F46E1E502120F86E94
:10149000F4CFF7FFF3CFF6FF0800F550F00BE76E3F
:1014A000010EE7CFDBFFDB380F0BE76E010EE7CF56
:1014B000DBFFDB5081108A6E8A9A0ACFE6FF50EC80
:1014C0000CF0E5528A6A8A8A0E0E1C6E000E1D6EA2
:1014D000000E1E6EDFCF1FF0206A216A1C501F24F1
:1014E000F36E1D502020F46E1E502120F86EF4CFB4
:1014F000F7FFF3CFF6FF0800F5500F0BE76E010E74
:10150000E7CFDBFFDB5081108A6E8A9A0ACFE6FFB5
:1015100050EC0CF0E552DF2A8CD78A88020EE15C91
:1015200002E2E16AE552E16EE552E7CFD9FF12002F
:10153000D9CFE6FFE1CFD9FF0A0EE126FC0EDBCFC3
:10154000E6FFFD0EDBCFE6FFFE0EDBCFE6FFD9CFD9
:10155000E6FFDACFE6FF1EEC0CF01C6E050EE15E36
:101560001C50D9CFE6FFDACFE6FF0CD8E552E552A2
:101570000A0EE15C02E2E16AE552E16EE552E7CF74
:10158000D9FF1200D9CFE6FFE1CFD9FF020EE12645
:10159000DF6A010EDB6ADF50E76EFD0EDBCFE9FF8D
:1015A000FE0EDBCFEAFFE750E926000EEA22EF50FD
:1015B00051E08A9AC00E81148A6EDF5002E18A9847
:1015C00001D08A888A8ADF50E76EFD0EDBCFE9FF03
:1015D000FE0EDBCFEAFFE750E926000EEA22EF50CD
:1015E000F00BE76E010EE7CFDBFFDB380F0BE76E8A
:1015F000010EE7CFDBFFDB5081108A6E8A9A0BCF9A
:10160000E6FFB8EC0CF0E552C00E81148A6EDF5094
:1016100002E18A9801D08A888A8ADF50E76EFD0E3F
:10162000DBCFE9FFFE0EDBCFEAFFE750E926000E35
:10163000EA22EF500F0BE76E010EE7CFDBFFDB5026
:1016400081108A6E8A9A0BCFE6FFB8EC0CF0E55257
:10165000DF2AA1D7020EE15C02E2E16AE552E16E07
:08166000E552E7CFD9FF1200AB
:081668001E0EF66E000EF76E77
:10167000000EF86E0F010900F550056F0900F550D6
:10168000066F03E1056701D03DD00900F550006FFA
:101690000900F550016F0900F550026F09000900BB
:1016A000F550E96E0900F550EA6E090009000900DD
:1016B000F550036F0900F550046F09000900F6CFDB
:1016C00007FFF7CF08FFF8CF09FF00CFF6FF01CFE4
:1016D000F7FF02CFF8FF0F01035302E1045307E0C5
:1016E0000900F550EE6E0307F8E20407F9D707CFBB
:1016F000F6FF08CFF7FF09CFF8FF0F010507000E2F
:06170000065BBFD71200DA
:0A170600D9CFE6FFDACFE6FFE1CF0E
:10171000D9FFE2CFDAFFFD0EDB50C96EC6AE02D0B4
:10172000FF0E2BD00F0EC61408080FE00F0EC614C4
:101730000B080BE0C6889EA6FED7C750040B03E13A
:10174000C750010B17E0000E18D00F0EC614080882
:1017500004E00F0EC6140B0810E1C7B0FED7C75047
:10176000040B01E0010E1C6E1F0EC5141C10F7E1E6
:10177000C5AC02D0FE0E01D0000EE552E5CFDAFF77
:06178000E7CFD9FF1200C3
:0A178600D9CFE6FFDACFE6FFE1CF8E
:10179000D9FFE2CFDAFFFB0EDBCFF3FFDB06F3501E
:1017A000000925E0ABEC0CF0E66EFC0EDBCFE9FFA8
:1017B000DB2AFD0EDBCFEAFF01E3DB2AE552E7502F
:1017C000EF6EC5B6FED7A1A602D0FF0E11D00F0E48
:1017D000C614080804E00F0EC6140B08DCE1FB0E6B
:1017E000DB50D9E0C59AC588C5A8D5D7FDD7000E6E
:0C17F000E552E5CFDAFFE7CFD9FF120089
:0417FC00D9CFE6FF5C
:10180000DACFE6FFFA0EE3CFD9FFFB0EE3CFDAFF24
:10181000FC0EE3CFE9FFFD0EE3CFEAFFDE50EF5C05
:1018200002E1EE66FBD7F36EFF0EE3CFDAFFE5527F
:10183000FF0EE3CFD9FFE552F3501200FB0EE3CFCA
:10184000F6FFFC0EE3CFF7FFFD0EE3CFF8FFFE0E31
:10185000E3CFE9FFFF0EE3CFEAFFE9CFF3FFEACFE3
:0E186000F4FF0900F5CFEFFFEE66FBD7120094
:02186E00D9CFD0
:10187000E6FFDACFE6FFE1CFD9FFE2CFDAFF3F0E96
:10188000C716C66AC56AFD0EDB50C612FC0EDB50D9
:10189000C712C68AE552E5CFDAFFE7CFD9FF1200BB
:1018A000FF0EE350236EEF0E01D0F30EE76EE72E2E
:1018B00057EF0CF00C0E226EE76AE72E5DEF0CF08E
:0E18C000222E5CEF0CF0232E55EF0CF01200E0
:0218CE00056AA9
:1018D000046A100EE76ED8900836093604360536CD
:1018E0000D50045C0E50055805E30D50045E0E507B
:0A18F000055A082AE72EF0D712006F
:0618FA00FF0EE350236E17
:10190000480E01D04C0EE76EE72EFED7E76AE72EB1
:0A191000FED7232EF7D700001200C7
:06191A00160EF36E00EE54
:1019200000F00F0E01D81200EA6002D0EE6AFCD778
:0A193000F350E9601200EE6AFCD7E4
:06193A001EEE00F02EEE8F
:1019400000F0F86A019C34EC0BF003EC00F01CECA6
:0619500000F0FBD71200BD
:0A1956000F0EC614080804E00F0E7F
:10196000C6140B0801E1C586C7A0FED7C9501200F6
:10197000FF0EE350E84E1200000000D000D000D06F
:06198000E82EFAD7120068
:0A19860080543D2020202020430063
:0A199000C050543D202020205600D6
:06199A0009FD09FD00003B
:1019A00009FD000044FC09FD000082FD000000006C
:1019B000000004FB00000000000044FC00000000E8
:1019C00004FB0000000013FA000000008FFB000081
:1019D0000BFC0000CFFB8FFB000004FB09FD82FD28
:1019E000C8FD000034FD82FD000009FD000044FC3C
:1019F000ACFC0BFC0000000044FC0000000004FBF9
:101A00000000000013FA000000008FFB00000BFC38
:101A10000000CFFB8FFB000004FB09FD82FDC8FD29
:101A2000000034FD82FD000009FD000044FCACFC18
:101A30000BFC000000003D5DFC26003030302E30F5
:101A40000030302E303000000000C89E583CB000FE
:101A5000000000FCB00030000018FC18FC0000542E
:101A60004849532049532046524F4D204545505236
:021A70004F4DD8
:020000040030CA
:010000001DE2
:0100010003FB
:01000200728B
:010003007C80
:010005008B6F
:00000001FF
